:020000040800F2
:10000000500C002031020008A32800089B2800089B
:100010009F2800084F150008692E00080000000006
:10002000000000000000000000000000D1280008CF
:100030005315000800000000A52800088D2A0008BC
:100040004B0200084B0200084B0200084B0200085C
:100050004B0200084B020008551500084B0200082F
:100060004B0200084B0200084B0200084B0200083C
:100070004B0200084B0200084B0200084B0200082C
:100080004B0200084B0200084B0200084B0200081C
:100090004B0200084B0200084B02000881150008C3
:1000A0004B0200084B0200084B0200084B020008FC
:1000B0004B020008992A00084B0200084B02000876
:1000C0004B0200084B0200084B0200084B020008DC
:1000D0004B020008592E00084B0200084B02000892
:1000E000691500084B0200084B0200084B0200088B
:1000F0004B0200084B0200084B0200084B020008AC
:100100004B0200084B0200084B0200084B0200089B
:100110004B0200084B0200084B0200084B0200088B
:100120004B0200084B0200084B0200084B0200087B
:1001300000F002F800F052F80AA090E8000C8244A7
:100140008344AAF10107DA4501D100F047F8AFF284
:10015000090EBAE80F0013F0010F18BFFB1A43F0A5
:1001600001031847D0610200F0610200103A24BF79
:1001700078C878C1FAD8520724BF30C830C144BF0C
:1001800004680C607047000000230024002500264E
:10019000103A28BF78C1FBD8520728BF30C148BFEA
:1001A0000B60704766290BF0A884642900F0AC80CE
:1001B000782900F0E580732900F0C9840020704799
:1001C0001FB500F0BAF900F0D9FC040000200021AE
:1001D0000AF034FFE0601FBD10B510BD00F0CEFD89
:1001E0001146FFF7EDFF09F095FF00F0ECFD03B4B9
:1001F000FFF7F2FF03BC02F070FE00000B49D1F8DC
:1002000000C04A685CF8043B1068184442F8040BCC
:100210008C4528BFA1F1DC0C8A4228BFA1F1DC0289
:10022000C1F800C04A6020F000407047E40500209B
:100230000948804709480047FEE7FEE7FEE7FEE77A
:10024000FEE7FEE7FEE7FEE7FEE7FEE704480549B6
:10025000054A064B70470000952A00083101000846
:1002600050060020500C00205008002050080020AC
:10027000704700000FB4044910B503AA029800F0BB
:100280006BFC10BC5DF814FB080000200FB41CB51B
:10029000074B06AA7B4469460090059800F02DFCA8
:1002A0000020694600F03CFC1CBC5DF814FB00001B
:1002B0008908000070B50C460546012A05D028784B
:1002C000800600D5EA69002302E0012305E05B1CFB
:1002D000934202D2E05C0028F9D1A869E618C01A5E
:1002E000A861286A184428622846AFF3008004E019
:1002F000D5E9012114F8010B9047B442F8D3284600
:10030000AFF3008070BD00002DE9F04106460024E7
:1003100010687529314616A510D0AFF3008000286B
:1003200002DA404213A507E031688A0701D512A519
:1003300002E0490704D511A5012401E0AFF30080D4
:1003400000210A2206F1240709E0B0FBF2FCB0FB11
:10035000F2F302FB1C00303078541846491C002888
:10036000F3D123462A463046BDE8F04100F05AB9A1
:10037000000000002D0000002B0000002000000005
:1003800070B504460D4621461068AFF30080218801
:10039000090502D50F4A7A4402E00E4A7A440E3229
:1003A000002104F1240305E000F00F060009965D2A
:1003B0005E54491C0028F7D120780023000704D59B
:1003C000702D02D009B1022311322046BDE87040E1
:1003D00000F028B94E5E02002DE9F05F8946044620
:1003E0004FF0000ADFF824B1FB44C0F820A02046FB
:1003F000E168884700287DD0252806D0D4E901216E
:100400009047206A401C2062F1E700255F462046A5
:10041000E16888472028064607DB312E05D2B81947
:1004200010F8200C08B10543F1E7A80701D525F025
:100430000405C4F81CA00027C4F818A02A2E09D06F
:10044000304602F043FD38B304EB8708303EC8F86D
:10045000186019E059F8041B204604EB87029161EB
:10046000E1688847012F064618D1E069002820DAA4
:1004700025F020051DE0D8F8180000EB800006EB01
:1004800040003038C8F818002046E1688847064622
:1004900002F01CFD0028EED1012F0AD02E2E08D12B
:1004A0002046E16888477F1C0646022F45F020055C
:1004B000C4DBA069002803DA404245F00105A061D1
:1004C000E80701D025F01005A6B1A6F141001928D2
:1004D00002D8203645F400654A463146204625605C
:1004E0004D46FFF75FFE60B1012807D0ED1D25F0F6
:1004F000070000E007E000F1080978E705F10409CA
:1005000075E730467AE7206ABDE8F09F245E020076
:100510000B4910B5A1F17C020A4CC2E93712372110
:1005200006E000EB104342F82130074B00FB03408C
:100530000B1EA1F10101F4DC10BD0120E8E7000071
:1005400084050020E119D666CD0D01004FF00002B0
:1005500000B5134694469646203922BFA0E80C50B9
:10056000A0E80C50B1F12001BFF4F7AF090728BF94
:10057000A0E80C5048BF0CC05DF804EB890028BF10
:1005800040F8042B08BF704748BF20F8022B11F039
:10059000804F18BF00F8012B704700004FF0013C5E
:1005A00050F8042B51F8043B9A4221D1A2EB0C03E2
:1005B000934313EACC1317D150F8042B51F8043BA2
:1005C0009A4215D1A2EB0C03934313EACC130BD13F
:1005D00050F8042B51F8043B9A4209D1A2EB0C03CA
:1005E000934313EACC13DBD04FF00000704700BFF9
:1005F000D01A01BAB1FA81F101F0180122FA01F022
:10060000CB40C1F12001DBB2C0B2C01A2CFA01F319
:10061000D11A914311EAC311E6D170477047704770
:10062000704770472DE9F0470D46994692460446BB
:1006300000F124080168880604D5E06921F0100162
:10064000216000E00120A84201DD471B00E00027F7
:10065000A1697A1902EB0900081AA0612078C00686
:1006600002D42046AFF30080002608E0D4E901213F
:100670001AF806009047206A401C761C20624E45FE
:10068000F4DB2078C0060AD52046AFF3008006E0F0
:10069000D4E9012130209047206A401C2062381E96
:1006A000A7F10107F4DC07E0D4E9012118F80500FF
:1006B0009047206A401C2062281EA5F10105F3DC4A
:1006C0002046AFF300802078000602D50220BDE866
:1006D000F0870120FBE770472DE9FF4F0C461E46CF
:1006E0004FF0FF378BB0D2E90001DDF860800A904F
:1006F0008A46C1F30A5505B93D46002108464FF028
:100700000000BAF1000F00F4400005DA00EB8000B1
:100710004FF4400101EA50004FEA9059B9F1010F3E
:1007200000DDB9460A9850EA4A000ED044F610504F
:10073000A5F2FF3545432F14B8F1000F1ED07542C6
:10074000291E1EDDC9F100021CE0B8F1010F4FF0B7
:10075000000001D0302103E0F24305E02154401CA9
:10076000B042FBDB30460022002121540B99C1F836
:100770000880C1E900200FB0BDE8F08FBD1B6D1CE3
:10078000DEE74A4600DA694206A800F081FA06ABC5
:1007900093E8070003AB83E8070050460A9900F08E
:1007A0001BFB8DE80700A0F500501F380090039850
:1007B000002D09DD42F21F014A46084403A90390B7
:1007C000684600F07AFD08E0A0F500504A461F3860
:1007D00003A90390684600F084FD8DE8070000043B
:1007E000000C03D04FF0FF30410800E01046B8F194
:1007F000000F03D00022009215461EE0751E05D49E
:1008000000F0C0F9303262556D1EF9D5B3460122B1
:10081000084302D000227F1C04E02078302801D158
:1008200000227F1E002A099786D01DE0112D07DACD
:1008300000F0A8F9303262556D1C50EA0102F5D182
:10084000084302D00098C8B10EE00021681E05E000
:10085000235C625C63542254401E491C8142F7DBD6
:10086000AB46A81B401E0990002004F80B000B9813
:10087000099AC0F80880C0E9002B7CE711264FF0E8
:10088000000859E72DE9F04F88460446D21D22F0B2
:10089000070191B0D1E90001CDE90A0102F0E6FAC1
:1008A00002460B98C00F01D02D2007E02068810779
:1008B00001D52B2002E0202101EAC000032A099083
:1008C00001D0072A05DB03464146204600F0A0F987
:1008D0000BE12078800601D5E06900E00620B8F140
:1008E000650F814606D0B8F1660F18D0B8F1670FD2
:1008F00070D131E00020B9F1110F009001DB11231C
:1009000001E009F101030AAA01A90CA8FFF7E4FE1E
:10091000DDE90C70002609F10105834647E001205E
:100920004B4600904FF000470AAA01A90CA8FFF718
:10093000D3FEDDE90DB00C995D46002610B909F132
:1009400001000D18B9EB050003D4C0F1FF3609F121
:100950000105A5EB09002BE0B9F1010F01DA4FF019
:1009600001090020B9F1110F0090484601DD112363
:1009700000E003460AAA01A90CA8FFF7ADFEDDE9D5
:100980000C704D4600268346207800070AD4AB45FC
:1009900000DA5D4601A8012D04DD411911F8011CA2
:1009A000302907D04F4502DA17F1040F04DA01208D
:1009B00082460FE06D1EEEE7002F02DCED1B3E4489
:1009C00003E0781CA84200DD7D1CB81B00F1010A81
:1009D0004FF000472078000703D4AA4501DB4FF011
:1009E000FF3A0021B7F1004F0DF143088DF8431095
:1009F00024D002202B23002F01DA7F422D230A214D
:100A0000021EA0F1010000DC5FB197FBF1FC97FB37
:100A1000F1F201FB1C7C17460CF1300C08F801CDFB
:100A2000EEE7A8F1010003702188090501D54521F1
:100A300000E06521A0F1010800F8011C09980FA948
:100A4000A1EB0807FF1D00B10120411901EBEA707D
:100A5000A1693844081A401EA0612078C00602D45B
:100A60002046AFF30080099828B1D4E901219047CE
:100A7000206A401C20622078C00622D52046AFF3B1
:100A800000801EE0002E04DBB34502DD01A8805D7E
:100A900000E03020D4E901219047206A401C206208
:100AA000761CAAF101005FEA000A0AD100F066F89C
:100AB000C0680168405CD4E901219047206A401C6D
:100AC0002062281EA5F10105DCDC07E0D4E9012144
:100AD00018F8010B9047206A401C2062381EA7F1CD
:100AE0000107F3DC2046AFF30080032011B043E69A
:100AF00001694A1C02610878704700B58FB0CDE9E2
:100B000001310021059105497944CDE903101146D1
:100B10006846FFF761FC0FB000BD0000E5FFFFFF76
:100B20000A6802F8010B0A60704710B5436913B1F7
:100B3000AFF3008001E0FFF7BDFB012010BD12788C
:100B400000F124010A7000224A700122EDE71168C9
:100B50004FF0FF32E9E70000074B70B50D467B44CC
:100B6000FFF7CBFF0446284600F000F910B14FF024
:100B7000FF3070BD204670BD8B2C000000487047D0
:100B80000C06002030B5B0F10A024FEA900E71F168
:100B900000034EEA817EB0EB0E0061EB91014FEA5B
:100BA000101E4EEA017E10EB0E0041EB11114FEAD0
:100BB000102E4EEA016E10EB0E0041EB11214FEAB0
:100BC000104E4EEA014E10EB0E0041EB1141401861
:100BD00041F100014FEAD00040EA41704FEAD101F3
:100BE00010EB80054FEA810444EA907444EB010461
:100BF0006D1944EB0404521BA3414FF0000348BF9E
:100C00000A3200D530BD401C41F1000130BD00006A
:100C10002DE9F0411F46044603260168072A01F426
:100C2000006004DB08B116A505E016A503E008B1D5
:100C300015A500E015A521F010002060A069C01ED8
:100C4000A0610FB1401EA0612046AFF300804FB1FC
:100C5000D4E9012138469047206A401C2062C01C1C
:100C6000206206E0206AFAE7D4E9012115F8010BB9
:100C70009047761EF8D22046AFF30080BDE8F081A1
:100C80004E414E006E616E00494E4600696E660030
:100C90002DE9F047814616468AB0334878440DC89E
:100CA0008DE80D0030487844801C03AC0DC884E802
:100CB0000D0041F69B300844372190FBF1F290FB88
:100CC000F1F5A5F1800501FB12041B3C02D564423D
:100CD000012000E00020DFF890A080460027FA44C1
:100CE000AAF1BE0A0DE0E00709D03246684607EBDC
:100CF00047010AEB810100F0F4FA8DE80700641067
:100D00007F1C002CEFD1184F7F44AC3F18E0E80760
:100D100014D007EB04100DF1180A90E80E008AE8D1
:100D20000E00C068F04201D198190890324606A919
:100D300003A800F0D6FA03AB83E807006D10641C2B
:100D4000002DE4D132466946B8F1000F03A802D065
:100D500000F0B3FA01E000F0C4FAC9E90001C9F8F3
:100D600008200AB0BDE8F08700560200007B00F0C2
:100D70008000704700487047EC0500207546FFF77B
:100D8000F9FFAE4605006946534620F00700854648
:100D900018B020B5FFF75AFABDE820404FF0000622
:100DA0004FF000074FF000084FF0000B21F0070153
:100DB000AC46ACE8C009ACE8C009ACE8C009ACE896
:100DC000C0098D46704710B50446AFF30080204639
:100DD000BDE81040FFF70BBA5FEA400C08BF91F086
:100DE000000F4FEA8C234FEAC12243EA51514FEAE8
:100DF0001C5018BF00F5F0404FEA300018BF41F01A
:100E000000415FEA6C5C00F02980BCF1FF3F08BF45
:100E100040F080407047130C06BF12044FF0100CD6
:100E20004FF0000C130E04BF12020CF1080C130F4C
:100E300004BF12010CF1040C930F04BF92000CF1DB
:100E4000020CD30F04BF52000CF1010C11464FF0FD
:100E50000002A0F11F00A0EB0C00704711F0004F42
:100E600008BF704731F000413FF4D5AF0B0C06BF0F
:100E700009044FF0100C4FF0000C0B0E04BF0902D8
:100E80000CF1080C0B0F04BF09010CF1040C8B0FC3
:100E900004BF89000CF1020CCB0F04BF49000CF118
:100EA000010CCCF12003A0EB0C0022FA03F302FAB0
:100EB0000CF241EA030100F10100704720F07F4C81
:100EC00080EA030023F07F47ACEB070303F57C5374
:100ED00000F0004003F1FF032DE980494FEA154B74
:100EE00009B44FEA144325EA0B4E24EA03480FF2F3
:100EF000042606EB132749083E785FEA320203FB1B
:100F00000667C7F5000707FB06F64FEA54374FEAB6
:100F1000D64606F1020607FB066CCCF1005C4FEAF0
:100F20001C472CEA074C07FB06F40CFB06F504EB08
:100F300015464FEA961634BF00204FF000404FEAA6
:100F4000D13706FB07FC4FEA1C4C0CFB0BF7D21BFE
:100F500003FB0CF761EB07010CFB0EF7B0EB07404E
:100F600072EB17420CFB08F734BFA2EB0742B2EB5F
:100F7000074261EB17414FEA0C444FEA910706FB29
:100F800007FC4FEA1C4C0CFB0BF7B0EBC74072EBB5
:100F9000573203FB0CF734BFA2EBC742B2EBC74298
:100FA00061EB57310CFB0EF7B0EBC70072EB5772D9
:100FB0000CFB08F734BFA2EBC702B2EBC70261EB30
:100FC0005771039F4FEA816141EA921104EBCC040F
:100FD0004FEAD1374FEA826206FB07FC42EA9012E1
:100FE0004FEA80604FEA1C4C0CFB0BF7D21B03FB53
:100FF0000CF761EB07010CFB0EF7B0EB074072EB4F
:1010000017420CFB08F734BFA2EB0742B2EB0742D2
:1010100061EB17414FEA8C554FEA910704EB9C2492
:1010200006FB07FC4FEA1C4C0CFB0BF7B0EBC74070
:1010300072EB573203FB0CF734BFA2EBC742B2EBA3
:10104000C74261EB57310CFB0EF7B0EBC70072EBF8
:1010500057720CFB08F734BFA2EBC702B2EBC70212
:1010600061EB577115EB4C254FEA816141EA921112
:101070004FEA82624FEAD13742EA901206FB07FC40
:1010800044F100044FEA80604FEA1C4C0CFB0BF764
:10109000D21B03FB0CF761EB07010CFB0EF7B0EB67
:1010A000074072EB17420CFB08F734BFA2EB074274
:1010B000B2EB074261EB174115EB1C154FEA81318A
:1010C00041EA92414FEA823242EA90424FEA80304E
:1010D0004FEA0C7644F1000448EA03434EEA0B4819
:1010E0004FF0000EB2EB080C71EB030724BF624611
:1010F00039464EEB0E0E4FF0000B0018524149419D
:101100004BEB0B0BB2EB080C71EB03077BF1000B05
:1011100024BF624639464EEB0E0E4FF0000B00180E
:10112000524149414BEB0B0BB2EB080C71EB03073F
:101130007BF1000B24BF624639464EEB0E0E51EA9E
:10114000020718BF46F0010616EB0E7655F10002B5
:1011500054F1000103D5BDE88901BDE80088BDE870
:101160008901BDE80048B619524141EB0101A3F1E4
:101170000103704780807F7E7D7C7B7A79787776EB
:1011800076757473727171706F6E6E6D6C6C6B6A64
:101190006A69686867666665646463636261616002
:1011A000605F5F5E5E5D5D5C5C5B5B5A5A5959587F
:1011B00058575756565555555454535352525251E9
:1011C000515050504F4F4F4E4E4D4D4D4C4C4C4B3F
:1011D0004B4B4A4A4A494949484848474747474686
:1011E00046464545454444444443434343424242C2
:1011F00042414141002B26D4770021D01CB54FEA53
:10120000370703B44FF010004FF010014FF000000B
:101210000FBCBDE810400BF1010BBBF1010F08BF83
:101220005FEA170722BF12F1010211F101014FF02D
:10123000004143F1000300F0004043EA0000704722
:10124000F9D35708DAE746EA064613F1400F4FEAAA
:1012500016461FDD13F1200FDFBF16430A4600219B
:1012600020335B42C8D0C3F1200746EA064602FAA3
:1012700007F74FEA164646EA0706C3F1200722FAA7
:1012800003F201FA07F721FA03F14FF0000342EAF3
:101290000702B1E746EA020646EA06464FEA164664
:1012A00046EA0106BCBF46EA0646360C4FF000038C
:1012B0004FF000024FF000019EE72DE9C048934631
:1012C00030B491E8380007C831EA400C48BF34EA2E
:1012D000430C03D5FFF7F2FDFFF78CFFF0BCBDE830
:1012E00000882DE9C048934630B491E8380007C81B
:1012F00010F0804F08BF13F0804F03D100F005F8C5
:10130000FFF778FFF0BCBDE8008820F07F4780EA57
:10131000030023F07F4C07EB0C03A3F57C5300F094
:101320000040A3F1FE0392F0000F00F0B38095F0AF
:10133000000F00F077802DE901494FEA11404FEA94
:10134000144621EA004800FB06FC24EA064708FB95
:1013500006F607FB08F800FB07F718EB06484CEB0E
:10136000164C4FEA124B18EB07484FEA15464CEB68
:10137000174022EA0B4E0BFB06FC25EA06470EFB44
:1013800006F607FB0EFE0BFB07F71EEB064E4CEBBB
:10139000164C4FF000061EEB074E4CEB174B18EBAC
:1013A0000B0840F1000018EB0E0B58EB000840F161
:1013B00000008F1A4FF000013CBFC943661B14BFE9
:1013C000B5EB040C00213CBFC943F61B4FEA1744A0
:1013D0004EEA8E0E27EA04454FEA1C4704FB0762DB
:1013E0002CEA074C05FB07F70CFB05F604FB0CFC8D
:1013F00016EB074642EB174216EB0C4642EB1C423B
:101400001BEB060658EB0202414146EA9E0601D557
:10141000BDE80189B619524141EB0101A3F1010375
:10142000BDE801894FEA14454FEA114724EA054611
:1014300021EA074C05FB07F406FB07F70CFB06F156
:1014400005FB0CFC11EB074144EB17444FEA124734
:1014500011EB0C4144EB1C4422EA074C05FB07F25C
:1014600006FB07F70CFB06F605FB0CFC16EB074624
:1014700042EB174216EB0C4642EB1C456A1854F13E
:10148000000148BF7047B619524141EB0101A3F179
:101490000103704795F0000F37D04FEA11424FEA31
:1014A000144721EA024624EA074C02FB07F106FB37
:1014B00007F70CFB06F402FB0CFC14EB074441EBB2
:1014C00017414FEA154714EB0C4441EB1C4125EA48
:1014D000074C02FB07F506FB07F70CFB06F602FBC1
:1014E0000CFC16EB074645EB174516EB0C4645EB97
:1014F0001C42121951F1000148BF7047B619524100
:1015000041EB0101A3F1010370474FEA14454FEA93
:10151000114724EA054621EA074C05FB07F106FBC3
:1015200007F70CFB06F24FF0000605FB0CFC12EB74
:10153000074241EB174112EB0C4251EB1C4148BFF3
:101540007047921841EB0101A3F10103704700BFFE
:10155000FEE7704710B5012000F042F90120014973
:10156000086010BD1404014010B54FF4004000F0B5
:1015700037F94FF400400149086010BD14040140E0
:1015800010B5202000F02CF920200149086010BD82
:101590001404014070B50446002594F82100022887
:1015A00003D00420A0630125C1E02068006820F07A
:1015B0000E00216808602068006820F001002168A2
:1015C00008605C492068884252D95A4978392068B5
:1015D000884201D1012047E0564964392068884299
:1015E00001D1102040E0534950392068884201D190
:1015F000801539E04F493C392068884201D1801478
:1016000032E04C4928392068884202D14FF48030BA
:101610002AE0484914392068884202D14FF48010EA
:1016200022E044492068884201D140041CE042493C
:101630002068884201D1012016E03F49143120681A
:10164000884201D110200FE03B49283120688842B0
:1016500001D1801508E038493C312068884201D129
:10166000801401E04FF480303349091F086051E0D5
:10167000304978392068884201D1012047E02D495E
:1016800064392068884201D1102040E0294950394E
:101690002068884201D1801539E026493C3920680C
:1016A000884201D1801432E02249283920688842DA
:1016B00002D14FF480302AE01E4914392068884254
:1016C00002D14FF4801022E01A492068884201D1EB
:1016D00040041CE018492068884201D1012016E02E
:1016E000154914312068884201D110200FE01249B9
:1016F00028312068884201D1801508E00E493C312C
:101700002068884201D1801401E04FF480300949FB
:1017100080394860012084F8210000BF002084F84F
:10172000200000BF606B10B12046616B88472846DF
:1017300070BD0000800002400804024010B504465D
:10174000142001F081FE012C30D0202C03D0B4F500
:10175000004F38D11DE020211C4800F0EFF9B8B946
:101760004FF6FF7003F0B4F901F03CFF184803F0A6
:1017700095F91749174803F059F901F009F941F6AD
:101780001F4141F2873002F0AFFF1D2000F05EFAEA
:1017900019E04FF40041104800F0D0F928B900BF1B
:1017A00004210E4800F0D2F900BF0CE001210A48E4
:1017B00000F0C4F9012805D14FF6FF7003F088F955
:1017C00002F094FC00BF00BF10BD000000100140FB
:1017D000880100201C000020000801400014014086
:1017E00010B5044604480068204020B10248046057
:1017F0002046FFF7A3FF10BD140401402DE9F84770
:10180000024600239C467BE14FF0010808FA03F4EE
:10181000D1F8008008EA0400A0427DD1DFF8F4A2EC
:10182000D1F80480A8EB0A09D0453AD014DCB8F10D
:10183000030F50D009DCB8F1000F31D0B8F1010F1F
:101840001CD0B8F1020F49D120E0B8F1110F18D027
:10185000B8F1120F42D11EE0B9F5881F25D006DC81
:10186000B9F5803F20D0B9F5801F37D11AE0B9F51E
:10187000001F18D0B9F5041F30D117E0D1F80CC003
:101880002DE0D1F80C8008F1040C28E0D1F80C8090
:1018900008F1080C23E0D1F80C8008F10C0C1EE0D4
:1018A00000BF00BF00BF00BF00BF00BFD1F808806D
:1018B000B8F1000F02D14FF0040C0BE0D1F8088012
:1018C000B8F1010F03D14FF0080C146102E04FF0A2
:1018D000080C546103E04FF0000C00E000BF00BFB3
:1018E000FF2801D8904601E002F104084646FF288F
:1018F00002D84FEA830803E0A3F108084FEA8808FA
:101900004746D6F800804FF00F0909FA07F928EA90
:1019100009080CFA07F900E07AE048EA0908C6F875
:101920000080D1F8048008F08058B8F1805F6FD152
:1019300000BFDFF8E481D8F8188048F00108DFF82C
:10194000D891C9F81880C846D8F8188008F001085E
:10195000CDF8008000BF00BF4FEAB9384FEA9309C5
:1019600058F829504FEA83784FEA18794FF00F085A
:1019700008FA09F825EA0805DFF8A081424502D1F6
:101980004FF0000824E0DFF89881424502D14FF083
:1019900001081DE0DFF88C81424502D14FF00208BA
:1019A00016E0DFF88481424502D14FF003080FE0D2
:1019B000DFF87881424502D14FF0040808E0DFF8F3
:1019C0007081424502D14FF0050801E04FF0060852
:1019D0004FEA83794FEA197908FA09F848EA0505C8
:1019E000DFF850814FEA930948F82950D1F8048074
:1019F00008F48038B8F5803F0BD1DFF83C81D8F887
:101A0000008048EA0008DFF83091C9F800800AE059
:101A100075E0DFF82481D8F8008028EA0008DFF8B4
:101A20001891C9F80080D1F8048008F40038B8F59E
:101A3000003F0ED1DFF8008108F10408D8F80080DB
:101A400048EA0008DFF8F09009F10409C9F80080BD
:101A50000DE0DFF8E48008F10408D8F8008028EAF7
:101A60000008DFF8D49009F10409C9F80080D1F822
:101A7000048008F48018B8F5801F0ED1DFF8B88014
:101A800008F10808D8F8008048EA0008DFF8A890B4
:101A900009F10809C9F800800DE0DFF89C8008F121
:101AA0000808D8F8008028EA0008DFF88C9009F1CF
:101AB0000809C9F80080D1F8048008F40018B8F5C6
:101AC000001F0ED1DFF8708008F10C08D8F80080F4
:101AD00048EA0008DFF8609009F10C09C9F80080B5
:101AE0000DE0DFF8548008F10C08D8F8008028EAEF
:101AF0000008DFF8449009F10C09C9F800805B1C6C
:101B0000D1F8008028FA03F8B8F1000F7FF47CAE1A
:101B1000BDE8F887000011100010024000080140E5
:101B2000000C014000100140001401400018014069
:101B3000001C014008000140000401400246936877
:101B40000B400BB1012000E00020704710B5C268C7
:101B500021EA020302EA010443EA0443036110BDDF
:101B60000AB1016101E00B0403617047014800689C
:101B700070470000100000200348006803490978FE
:101B80000844014908607047100000201800002038
:101B900010B50848006840F01000064908600520AC
:101BA00000F0A2F80F2000F007F800F02BF800205A
:101BB00010BD00000020024070B504460E480078B9
:101BC0004FF47A71B1FBF0F00C490968B1FBF0F504
:101BD000284600F005FC08B1012070BD102C07D28A
:101BE00000222146501E00F041F80548046001E043
:101BF0000120F2E70020F0E718000020000000209C
:101C0000140000207047000010B501460846002867
:101C100017DB00F01F0301229A400B4B440943F8E5
:101C2000242000BF00BF00BFBFF34F8F00BF00BF25
:101C300000BF00BF00BF00BFBFF36F8F00BF00BF7A
:101C400000BF00BF10BD000080E100E00146084673
:101C5000002809DB00F01F0301229A4043099B0082
:101C600003F1E023C3F8002100BF70472DE9F05FC6
:101C700080460D461646002701F00CF90746394606
:101C80002A46334601F00700C0F1070ABAF1040FF3
:101C900002D94FF0040A01E0C0F1070AD14600F171
:101CA000040ABAF1070F02D24FF0000A01E0A0F1D6
:101CB000030AD4464FF0010A0AFA09FAAAF1010A06
:101CC0000AEA020A0AFA0CFA4FF0010B0BFA0CFBB3
:101CD000ABF1010B0BEA030B4AEA0B042146404629
:101CE00001F0E0F8BDE8F09F00BF00F00702064BEE
:101CF00019684FF6FF031940044B0B4343EA0221D6
:101D0000014B196000BF70470CED00E00000FA05C0
:101D100070B504460D460CB9012070BD5A480068E4
:101D200000F00700A8420ED25748006820F00700D4
:101D30002843554908600846006800F00700A8429B
:101D400001D00120E9E7207800F0020002281DD12F
:101D5000207800F00400042805D14C48406840F485
:101D6000E0604A494860207800F00800082805D162
:101D70004648406840F460504449486043484068E1
:101D800020F0F000A168084340494860207800F046
:101D9000010078B36068012806D13C48006800F46F
:101DA000003090B90120B8E76068022806D13748B2
:101DB000006800F0007040B90120AEE733480068C9
:101DC00000F0020008B90120A7E73048406820F081
:101DD0000300616808432D494860FFF7C7FE0646C7
:101DE00009E0FFF7C3FE801B41F28831884202D927
:101DF000032092E707E02548406800F00C00616886
:101E0000B0EB810FEDD12048006800F00700A84238
:101E10000ED91D48006820F0070028431A490860C1
:101E20000846006800F00700A84201D0012074E7CE
:101E3000207800F00400042807D11448406820F4FA
:101E4000E060E168084311494860207800F008002C
:101E5000082808D10D48406820F46050216940EA04
:101E6000C1000A49486000F03FF808494968C1F3D9
:101E70000311074A515CC8400649086006480068DB
:101E8000FFF79AFE002048E70020024000100240C1
:101E9000FEBA00080000002014000020014800687D
:101EA000704700000000002000B5FFF7F7FF04496D
:101EB0004968C1F30221034A515CC84000BD0000DB
:101EC000001002400EBB000800B5FFF7E7FF044911
:101ED0004968C1F3C221034A515CC84000BD0000FB
:101EE000001002400EBB0008F0B585B00FF26C0C7C
:101EF0009CE8E01001A8A0E8E0101CA52D68009562
:101F000000210022002300240020194D696801F0FF
:101F10000C05F5B1042D02D0082D19D101E01548AA
:101F200019E001ADC1F38346AC5D01F4803555B1D4
:101F30000F4D6D68C5F340451DF805200D4D6543F7
:101F4000B5FBF2F302E00C4D04FB05F3184602E08A
:101F500000BF084800BF00BF05B0F0BD0203040584
:101F6000060708090A0B0C0D0E0F101001020000E5
:101F70000010024000127A0000093D00F8B5044646
:101F80000CB90120F8BD207800F00100002878D0BD
:101F9000F848406800F00C0004280CD0F548406870
:101FA00000F00C00082811D1F248406800F480309D
:101FB000B0F5803F0AD1EF48006800F400300028F7
:101FC0005FD0606800285CD10120DBE700BF60685B
:101FD000B0F5803F06D1E748006840F48030E5491D
:101FE000086028E0606858B9E248006820F4803052
:101FF000E04908600846006820F4802008601AE084
:102000006068B0F5A02F0BD1DA48006840F480205A
:10201000D84908600846006840F4803008600AE04B
:10202000D448006820F48030D2490860084600682F
:1020300020F48020086000BF606888B1FFF796FD3B
:10204000054606E0FFF792FD401B642801D90320F6
:1020500098E7C848006800F400300028F2D010E08B
:10206000FFF784FD054606E0FFF780FD401B64286E
:1020700001D9032086E7BF48006800F4003000283B
:10208000F2D1207800F00200022857D1B948406808
:1020900000F00C0050B1B748406800F00C00082870
:1020A00018D1B448406800F4803098B9B14800684D
:1020B00000F0020020B12069012801D0012061E771
:1020C000AC48006820F0F800616940EAC100A94905
:1020D000086033E02069E8B10120A7490860FFF7F4
:1020E00045FD054606E0FFF741FD401B022801D9EA
:1020F000032047E79F48006800F002000028F2D064
:102100009C48006820F0F800616940EAC1009949E4
:10211000086013E0002098490860FFF727FD054696
:1021200006E0FFF723FD401B022801D9032029E721
:102130009048006800F002000028F2D1207800F0FA
:10214000080008282DD1A069B8B101208B4908608A
:10215000FFF70CFD054606E0FFF708FD401B0228CF
:1021600001D903200EE78348406A00F002000028EE
:10217000F2D0012000F098FB13E000207F490860B6
:10218000FFF7F4FC054606E0FFF7F0FC401B0228D1
:1021900001D90320F6E67748406A00F002000028E3
:1021A000F2D1207800F00400042873D10027714890
:1021B000C06900F0805070B900BF6E48C06940F03F
:1021C00080506C49C8610846C06900F0805000909A
:1021D00000BF00BF01276A48006800F48070B0B9F2
:1021E0006748006840F4807065490860FFF7BEFCEE
:1021F000054606E0FFF7BAFC401B642801D903201E
:10220000C0E65F48006800F480700028F2D000BF8C
:10221000E068012806D15748006A40F0010055499E
:10222000086227E0E06858B95248006A20F00100CF
:10223000504908620846006A20F00400086219E06C
:10224000E06805280BD14B48006A40F0040049497A
:1022500008620846006A40F0010008620AE045484A
:10226000006A20F00100434908620846006A20F035
:102270000400086200BFE068A0B1FFF777FC0546E4
:1022800009E0FFF773FC401B41F28831884202D914
:10229000032077E622E03748006A00F002000028B9
:1022A000EFD012E0FFF762FC054608E0FFF75EFCA6
:1022B000401B41F28831884201D9032062E62D4853
:1022C000006A00F002000028F0D1012F05D1294852
:1022D000C06920F080502749C86100BFE069C8B3D9
:1022E0002448406800F00C00082860D0E06902280B
:1022F00048D1002020490866FFF738FC054606E073
:10230000FFF734FC401B022801D903203AE61948A4
:10231000006800F000700028F2D1206AB0F5803F1C
:1023200007D11448406820F40030A16808431149DF
:102330004860D4E9080108430E49496821F4741142
:1023400008430C49486001200B490866FFF70EFC62
:10235000054607E03DE0FFF709FC401B022801D9D4
:1023600003200FE60348006800F000700028F2D058
:102370002FE0000000100240000042428004424270
:1023800000700040002014490866FFF7EFFB054687
:1023900006E0FFF7EBFB401B022801D90320F1E523
:1023A0000E48006800F000700028F2D111E0E069EA
:1023B000012800D1E6E50948466806F48031206A24
:1023C000814204D106F47011606A814201D001207B
:1023D000D8E50020D6E5000000004242001002408F
:1023E00070B504462546681EB0F1807F01D30120F8
:1023F0000FE0681E4FF0E02148610F214FF0FF30E1
:1024000000F050FD00204FF0E021886107200861B6
:10241000002070BD10B504460CB9012010BD94F821
:102420003D0028B9002084F83C00204600F025F843
:10243000022084F83D00211D206800F097FB012058
:1024400084F8460000BF84F83E0001213F2001557A
:10245000402001554120015500BF00BF012084F8F4
:10246000420043200155442001554520015500BF3D
:10247000012084F83D000020D0E77047014691F824
:102480003D00012801D001207047022081F83D0065
:102490000868C06840F001000B68D860164B0868F7
:1024A000984213D0154B086898420FD00868B0F1D5
:1024B000804F0BD0124B0868984207D0114B086828
:1024C000984203D0104B086898420CD10868806885
:1024D00000F00702062A0CD00868006840F00100EE
:1024E0000B68186005E00868006840F001000B68A0
:1024F00018600020C8E70000002C014000340140B3
:102500000004004000080040000C0040704700003C
:102510002DE9F0470446206805682068C6682068F1
:1025200047694FF00008C14605F00F08B8F1000FE9
:102530000AD105F0200038B106F0200020B1204675
:1025400000F08CFBBDE8F087B8F1000F71D007F008
:10255000010018B906F4907000286AD005F0010057
:1025600030B106F4807018B1E06B40F00100E06318
:1025700005F0040030B107F0010018B1E06B40F045
:102580000200E06305F0020030B107F0010018B16D
:10259000E06B40F00400E06305F0080048B106F08D
:1025A000200010B907F0010018B1E06B40F00800FE
:1025B000E063E06B68B305F0200028B106F020006E
:1025C00010B1204600F04AFB20684069C0F3801932
:1025D000E06B00F0080010B9B9F1000F22D02046DE
:1025E00000F01CFB2068406900F04000B0B120689A
:1025F000406920F0400021684861606B50B1184884
:10260000616B4863606BFEF7C5FF10B1606B416B97
:1026100088470CE02046FFF779FF08E02046FFF7E7
:1026200075FF04E02046FFF771FF0020E06389E7B3
:10263000FFE705F0800030B106F0800018B12046B9
:1026400000F0DAFB7EE705F0400030B106F0400014
:1026500018B1204600F0F2FA74E700BF72E70000FC
:10266000092C000810B504460CB9012010BDA06962
:1026700000B100E000BF94F8390028B9002084F8C8
:102680003800204600F028F8242084F8390020681B
:10269000C06820F400502168C860204600F02EFB7E
:1026A0002068006920F49040216808612068406932
:1026B00020F02A00216848612068C06840F400507A
:1026C0002168C8600020E063202084F8390084F885
:1026D0003A000020CAE7000010B586B00446284939
:1026E000206888424AD100BF00BF2648806940F078
:1026F0000400244988610846806900F004000190C4
:1027000000BF00BF00BF00BF00BF0846806940F0A7
:10271000040088610846806900F00400019000BF51
:1027200000BF00BF00BF00BF0846806940F4804082
:1027300088610846806900F48040019000BF00BFB6
:1027400000BF48150290022003900120049003204E
:10275000059002A90C48FFF751F84FF480600290F1
:102760000020039002A90848FFF748F82520FFF74A
:102770006DFA032211462520FFF778FA06B010BD46
:1027800000380140001002400008014010B5034627
:1027900093F83A0020282FD101B10AB9012010BDC9
:1027A00000BF93F83800012801D10220F7E701208B
:1027B00083F8380000BF99629A85DA850020D863D3
:1027C000222083F83A0000BF002083F8380000BFC1
:1027D0001868C06840F480701C68E0601868406940
:1027E00040F001001C6860611868C06840F020007B
:1027F0001C68E0600020D2E70220D0E710B5044654
:102800002049206888423BD11F48008800F40040DE
:1028100088BB1D48008800F4804070B11B480078D8
:102820000A2803D000201849088024E016480088B0
:1028300040F40040144908801DE0144800780D2839
:1028400006D11148008840F480400F49088012E00A
:102850000E4800780C490988C1F30D010C4A505408
:1028600009480088401C0849088008460088C72895
:1028700001DD00200880012204490648FFF786FF99
:1028800010BD0000003801400C0000200E000020A8
:102890008000002048010020704700BFFEE700BF15
:1028A000FEE770477047000008B508490968C90885
:1028B0004FF47A72B1FBF2F14143009100BF00BFC7
:1028C00000994A1E00920029F9D108BD000000209D
:1028D000704700002DE9FC4F05460E4690461C4609
:1028E000B24600952046E21704EB5272D210214600
:1028F000E31704EB5373DB10A4EBC3030BB1012309
:1029000000E000231A4462431FFA82FB002736E0EE
:1029100018F8070001904FF000092AE0019800F034
:10292000800030B1184831460268284602F072FA39
:1029300007E00B9828B9154831460268284602F08E
:1029400069FA01984006000E0190701C86B2A6EB51
:102950000A00A04203D15646681C85B20CE00098DC
:10296000281AA04201D1009D06E009F101001FFADA
:1029700080F9B9F1080FD1DB00BF781C87B25F4541
:10298000C6DBBDE8FC8F00002C00002030000020DA
:102990000EB50020354908601023354ABB21009050
:1029A0000A20FFF797FF00201023324ABB21009036
:1029B0001920FFF78FFF4FF478402FA11022134604
:1029C000CDE9002102900822BB21282007F064FAFB
:1029D0001F201021CDE9001024480223BB210268EA
:1029E000372007F00DFA00201023244AA721009079
:1029F0004620FFF76FFF00201023214AA7210090F7
:102A00005520FFF767FF4FF478401BA110221346B3
:102A1000CDE9002102900822A721642007F03CFAAA
:102A20004FF4FA70114948601F201021CDE90010C1
:102A30000E480323A72142686E2007F0E1F94FF406
:102A4000784010A110221346CDE9002102901822EF
:102A5000A721872007F020FA002010230A4AA72187
:102A600000909C20FFF736FF0EBD000024000020E0
:102A7000DE290208FE2902083A0000009E2E020804
:102A8000BE2E02086D732F00D631020810B5FFF775
:102A900073F810BD704700001CB53048006800692D
:102AA00000F00100002857D02D4807F0B9FB2D4950
:102AB0002B4800F0B3FA002842D0294801F064FB0B
:102AC0002749284801F0B2FF27480068401C2649E2
:102AD00008601F201021CDE9001023480223BB21EC
:102AE0000268372007F08CF91C480068C06AC0EB08
:102AF000401101EB80106421B0FBF1F084B2B4F519
:102B0000FA6F01DA4FF4FA64601C0A2190FBF1F0CD
:102B1000154948601F201021CDE9001012480323F9
:102B2000A72142686E2007F06BF90E4800F026FDE1
:102B300000BF0A480068C4620848C46000BF00BF04
:102B4000074800F042FA10B1054801F0E5FA6FF0CD
:102B500001000249096808611CBD0000B0040020A2
:102B6000880100201C0000202400002010B502680D
:102B7000204B98420ED0204B98420BD0B0F1804FA2
:102B800008D01E4B984205D01D4B984202D01D4BD9
:102B9000984203D122F070024B681A43154B9842B9
:102BA0000ED0154B98420BD0B0F1804F08D0134B8C
:102BB000984205D0124B984202D0124B984203D152
:102BC00022F44072CB681A4322F080034C6943EA36
:102BD000040202608B68C3620B688362054B9842F3
:102BE00002D0054B984201D10B6903630123436175
:102BF00010BD0000002C01400034014000040040E2
:102C000000080040000C004070B505466C6A0020CA
:102C1000E085E0842046FFF779FC70BD0168C96853
:102C200021F490710268D1600168496921F00101C5
:102C300002685161202180F83A10704710B50446AF
:102C40002068C06820F040002168C860202084F817
:102C500039002046FFF720FE002010BD70B5044665
:102C600094F83A00222847D1A068B0F5805F0CD1D3
:102C7000206950B90025A66A20684068C0F30800A2
:102C80003080A06A801CA06215E0A56A0026A068BA
:102C9000B0F5805F03D0A06828B9206918B9206812
:102CA0004068287004E02068406800F07F002870C9
:102CB000A06A401CA062E08D401E80B2E085C8B9C9
:102CC0002068C06820F020002168C8602068C068C3
:102CD00020F480702168C8602068406920F00100FD
:102CE00021684861202084F83A002046FFF786FDDD
:102CF000002070BD0020FCE70220FAE770B5044612
:102D00002168096921F44051E26811432268116188
:102D10002269A1681143626941EA02052168C96814
:102D200041F20C62914329432268D16021684969CC
:102D300021F44071A2691143226851612D4A216832
:102D4000914202D1FFF7C0F801E0FFF7ADF800EBC8
:102D5000C00101EB001162689200B1FBF2F100EBDF
:102D6000C00202EB001263689B00B2FBF3F2642323
:102D7000B2FBF3F202EBC20303EB0212A1EB8201FE
:102D8000322202EB01116422B1FBF2F101F0F001F9
:102D900000EBC00202EB001263689B00B2FBF3F28F
:102DA0006423B2FBF3F201EB021200EBC00101EB72
:102DB000001163689B00B1FBF3F100EBC00303EB70
:102DC00000136668B600B3FBF6F36426B3FBF6F3B4
:102DD00003EBC30606EB0313A1EB8301322303EBE2
:102DE00001116423B1FBF3F101F00F0111442268DA
:102DF000916070BD00380140014691F839002128EA
:102E000028D18868B0F5805F0BD1086948B90A6A93
:102E10001088C0F308000B685860086A801C0862BC
:102E200005E00B6A581C086218780B685860C88C5B
:102E3000401E80B2C88458B90868C06820F080007D
:102E40000B68D8600868C06840F040000B68D86024
:102E5000002070470220FCE710B50248FFF758FB3E
:102E600010BD00004801002000BFFEE7490050EA05
:102E7000C12018BF04204A0D18BF40F0010040F2E5
:102E8000FF72B2EB515F08BF40F00200012808BF9B
:102E90000520704702480068C0F302207047000018
:102EA0000CED00E010B5002804DB0A07130E054AFC
:102EB000135406E00A07140E034A00F00F031B1F09
:102EC000D45410BD00E400E018ED00E030380A28CA
:102ED00001D2012070470020704700BF704710B535
:102EE00001F062FC10BD70B505460C46164606E0C2
:102EF00028466A1C95B200F008F804F8010B301E51
:102F0000A6F101018EB2F3D170BD70B50446002662
:102F100001F010FD2112A02202EB4101C8B201F024
:102F2000D1FC01F04FFD2546E11704EB11610912B8
:102F3000A4EB0121C8B201F0C5FC01F043FD01F092
:102F4000F9FCA12001F0BEFC01F03CFD002001F0E5
:102F500089FC064601F016FD304670BD70B5054689
:102F60000C46164606E02178284600F009F8681C51
:102F700085B2641C301EA6F101018EB2F3D170BD82
:102F800070B504460E4601F0D5FC2112A02202EBDA
:102F90004101C8B201F096FC01F014FD2546E1178D
:102FA00004EB11610912A4EB0121C8B201F08AFC03
:102FB00001F008FD304601F085FC01F003FD01F051
:102FC000E1FC0A2000F040FA70BD014608680028C4
:102FD0000ADB0868F02807DAD1F89001002803DB43
:102FE000D1F89001962801DB0120704701220FE003
:102FF00051F822300868984209D101F5C87050F89C
:103000002200D1F89031834201D10120EDE7521C1A
:10301000D1F820039042EBDC0020E6E7024610687E
:103020000B68984206D1D2F890014B68984201D1C2
:10303000012070470020FCE7F8B50446002517E0A2
:103040004FF6FF7004F5C876009036F825600A3612
:10305000B3B234F825600A36B2B204F5C87636F851
:103060002560B1B234F82560B0B205F0F9FD6D1CF1
:10307000D4F82003A842E3DCF8BD000010B500BF7F
:10308000002208211048FEF76BFD00BF00F01EF87B
:1030900000BF012211460C48FEF762FD00BF00F0A0
:1030A00015F800BF002201210748FEF759FD00BFB7
:1030B00000F00CF800BF012208210348FEF750FD84
:1030C00000BF00F003F810BD0010014010B5022051
:1030D00000F0C4F910BD000000B585B000BF00BF0E
:1030E0001948806940F010001749886108468069D6
:1030F00000F01000009000BF00BF00BF00BF00BF85
:103100000846806940F0100088610846806900F038
:103110001000009000BF00BF00BF0120019002908E
:1031200003900320049001A90848FEF767FB0820DC
:1031300001901120029001A90448FEF75FFB00F006
:10314000B1F805B000BD00000010024000100140C1
:1031500010B500BF012208210C48FEF701FD00BF99
:10316000FFF7B4FF00BF012211460848FEF7F8FC44
:1031700000BFFFF7ABFF00BF002201210348FEF7AD
:10318000EFFC00BFFFF7A2FF10BD000000100140E0
:1031900070B50546002400261CE06006040E00BF42
:1031A000012211461048FEF7DBFC00BFFFF78EFF3F
:1031B00008210D48FEF7C2FC08B1601CC4B200BF74
:1031C000002201210848FEF7CBFC00BFFFF77EFF7D
:1031D000701CC6B2082EE0DB15B9FFF7B9FF01E09D
:1031E000FFF74CFF204670BD0010014070B504464B
:1031F000002524E000BFE00928B10122082115487C
:10320000FEF7AEFC04E0002208211248FEF7A8FCFD
:1032100000BFFFF75BFF00BF012211460D48FEF71C
:103220009FFC00BFFFF752FF00BF002201210948A9
:10323000FEF796FC00BF6006040E681CC5B2082DA0
:10324000D8DB00BF012208210248FEF789FC00BF3D
:1032500070BD00000010014010B500BF0122082120
:103260000F48FEF77DFC00BF00BF012211460C484D
:10327000FEF776FC00BFFFF729FF00BF0022082100
:103280000748FEF76DFC00BFFFF720FF00BF0022DC
:1032900001210348FEF764FC00BFFFF717FF10BDD4
:1032A0000010014010B500BF002208210C48FEF7B5
:1032B00057FC00BFFFF70AFF00BF01221146084874
:1032C000FEF74EFC00BFFFF701FF00BF01220821FF
:1032D0000348FEF745FC00BFFFF7F8FE10BD0000F5
:1032E0000010014070B50024002500BF0122082114
:1032F0001548FEF735FC00BFFFF7E8FE00BF0122CE
:1033000011461148FEF72CFC00BFFFF7DFFE09E075
:10331000601CC4B2FA2C03DDFFF7C4FF012507E0EF
:10332000FFF7D4FE08210848FEF708FC0028EFD17B
:1033300000BF00BF002201210348FEF711FC00BFBF
:10334000FFF7C4FE284670BD001001402DE9FF5F65
:10335000804600240025F026A027374A07CA01AB83
:1033600007C34FF0060BA2462EE04FF0000922E003
:1033700001A830F81A0008F5C87C00903CF829C074
:103380000CF10A0C1FFA8CF338F829C00CF10A0C66
:103390001FFA8CF208F5C87C3CF829C01FFA8CF1A2
:1033A00038F829C01FFA8CF005F05AFC022000F012
:1033B0004BF809F10109D8F820034845D8DC64200E
:1033C00000F042F80AF1010ADA45CEDB2DE00020D8
:1033D000ABB2B2B2A9B20090A0B201F0C4FC6D1CB5
:1033E0000020BBB2B2B2A9B20090B0B201F0BBFCF7
:1033F000761EBD4208DC0020BBB2A2B2B9B200907A
:10340000B0B201F0B0FC7F1EB4420BDC0020A5F18D
:10341000010C1FFA8CF3A2B2B9B20090A0B201F075
:10342000A2FC641C322000F00FF8B44201DCBD4263
:10343000CDDDBDE8FF9F0000383202080149086079
:10344000704700000400002010B504464FF47A7164
:1034500004FB01F000F002F810BD000070B5034657
:1034600000224FF0E02675690D4E366803FB06F426
:103470004FF0E026B16910E04FF0E026B0698842D5
:103480000BD0884202D20E1A324402E02E1A0E44A9
:1034900032440146A24200D300E0EDE700BF70BD18
:1034A000040000200EB51F20FC239122CA210090A9
:1034B0005F2001F0E3FC4FF4784029A1102213466D
:1034C000CDE900210290DB21702006F0E5FC1F20F1
:1034D0004FF49C7391224FF4837100905F2001F0B0
:1034E000CDFC4FF478401FA110221346CDE90021F6
:1034F0000290202240F21711682006F0CDFC1F2018
:103500004FF49C7355224FF483710090232001F0F7
:10351000B5FC4FF4784015A110221346CDE90021E7
:103520000290202240F217112C2006F0B5FC1F203B
:103530004FF49C73CD224FF4837100909B2001F0D7
:103540009DFC4FF478400BA110221346CDE90021D9
:103550000290282240F21711A42006F09DFC0EBD17
:1035600055500000444F574E000000004C45465453
:1035700000000000524947485400000038B5044696
:103580004FF4FC600090A5880A35ABB225880A3557
:10359000AAB2A588A9B22588A8B205F061FB38BDFA
:1035A000F8B50446002517E04FF4784004F5C876D6
:1035B000009036F825600A36B3B234F825600A3632
:1035C000B2B204F5C87636F82560B1B234F8256099
:1035D000B0B205F045FB6D1CD4F82003A842E3DC33
:1035E000F8BD00000EB5002010233F4AA72100902F
:1035F0000A20FFF76FF9002010233C4AA721009012
:103600001920FFF767F900201023394AA7210090FD
:103610002820FFF75FF9FFF745FFFFF7B9F91F20F3
:10362000A123F02219460090002001F09CFB1F20EE
:10363000A223F02219460090002001F094FB1F20E5
:103640004FF4A0730022A0210090104601F08BFBE4
:103650001F204FF4A0730122A0210090104601F01A
:1036600082FB1F204FF4A073EF22A0210090104690
:1036700001F079FB1F204FF4A073F022A0210090ED
:10368000104601F070FB1F2040F23F13F022194654
:103690000090002001F067FB1F204FF4A073F02280
:1036A00019460090002001F05EFB4FF4784011A114
:1036B00010221346CDE9002102902822BB21A02030
:1036C00006F0EAFB002010230C4ABB210090C82022
:1036D000FFF700F900201023094ABB210090D720F2
:1036E000FFF7F8F80EBD00001E2A02083E2A020865
:1036F0005E2A02084B4559303A000000F6310208B4
:103700001632020800B585B000BF00BF324880699C
:1037100040F01000304988610846806900F01000D0
:10372000009000BF00BF00BF00BF00BF0846806917
:1037300040F0040088610846806900F004000090B1
:1037400000BF00BF00BF00BF00BF0846806940F057
:10375000040088610846806900F00400009000BF02
:1037600000BF00BF202001901C4802900120039060
:1037700001A91B48FEF742F84FF40040019017489A
:1037800002900120039001A91648FEF737F80120A6
:103790000190154802900220039001A91148FEF7FC
:1037A0002DF8022200211720FEF760FA1720FEF7FD
:1037B0004DFA022201212820FEF758FA2820FEF7B0
:1037C00045FA022211460620FEF750FA0620FEF7BF
:1037D0003DFA05B000BD00000010024000002110BD
:1037E00000100140000801400000111000BF054A10
:1037F000126802F04002002AF9D0C2B2014B1B1D30
:103800001A6070470038014000B587B000BF00BFA4
:103810004848806940F01000464988610846806940
:1038200000F01000019000BF00BF00BF00BF00BF4C
:103830000846806940F0100088610846806900F001
:103840001000019000BF00BF00BF4FF40050039074
:103850000120049005900320069003A93648FDF747
:10386000CDFF02200390002004900120059003204A
:10387000069003A93048FDF7C1FFFFF72DFC00BFFC
:1038800000224FF400512C48FEF76AF900BF1420C3
:10389000FFF7DAFD00BF012251032748FEF760F968
:1038A00000BF3220FFF7D0FD00208DF80800012274
:1038B00002A900F047F9012202A9A42000F042F970
:1038C00016208DF80800012202A9802000F03AF9A4
:1038D0000C208DF80800012202A9882000F032F99E
:1038E000022202A9A12000F02FF89DF8080030283C
:1038F00003D19DF8090003280DD09DF80900012887
:1039000009D09DF80900022805D09DF8080070B97B
:103910009DF8090058B99DF809009DF8082000EBB2
:10392000022106A0FCF7A6FC002007B000BD012084
:10393000FBE70000001002400010014043545020FB
:1039400049443A25780D0A002DE9F04106460F4614
:103950001546FFF781FC7020FFF748FCFFF7C2FC1B
:10396000F0B2FFF743FCFFF7BDFCFFF775FC7120D9
:10397000FFF73CFCFFF7B6FC00240BE0691EA142F8
:1039800001D0012100E000210846FFF701FC385575
:10399000601CC4B2AC42F1DBFFF784FCBDE8F081EF
:1039A0002DE9FC41074600200190002400266148D3
:1039B0000078401C5F490870084600780A2190FB97
:1039C000F1F201FB120018B15A4800780A2867DAB0
:1039D000012201A90220FFF7B7FF9DF8040000F0C3
:1039E0000F0000285CD09DF8040000F00F000628AE
:1039F0007BDA9DF8040000F00F014FF6FF7088405D
:103A000085B2E84380B240F440404B4988860420A8
:103A1000FFF71AFD00245AE04748808E0121A1409B
:103A20000840E0B3454931F8140004226946FFF725
:103A30008BFF414890F8440000F00100C0B19DF8B0
:103A400001009DF8001001F00F0100EB01203A4940
:103A5000203121F814009DF803009DF8021001F0B8
:103A60000F0100EB012134480C3020F814101EE047
:103A70009DF801009DF8001001F00F0100EB0120FE
:103A80002F490988081A81B22B480C3020F81410ED
:103A90009DF803009DF8021001F00F0101E014E011
:103AA00023E000EB01202449203121F814009DF887
:103AB000000000F0F000802807D000211E482030D0
:103AC00020F81410143820F81410601CC4B2052C0F
:103AD000A2DB01261848808920B91748008C08B954
:103AE000002001900020134908709DF8040000F0A8
:103AF0001F00A8B91048808E00F4004030B10E4875
:103B0000808E20F400400C49888609E04FF6FF7053
:103B10000949888108840846808E00F460408886C0
:103B200004480078F02802DD0A2002490870304677
:103B3000BDE8FC813400002038000020C461020888
:103B4000F80400202DE9F04105460E4617464FF0D7
:103B50000008FFF781FB7020FFF748FBFFF7C2FB6F
:103B6000E8B2FFF743FBFFF7BDFB00240BE0305D3D
:103B7000FFF73CFBFFF7B6FB8046B8F1000F00D023
:103B800003E0601CC4B2BC42F1DB00BFFFF78AFB5C
:103B90004046BDE8F08100000EB500201823FE4A23
:103BA0000A2100904120FEF795FE00201823FB4AD1
:103BB0000A2100906420FEF78DFE00201823F84AA9
:103BC0000A2100908720FEF785FE00201023F54A89
:103BD000322100901846FEF77DFE00201023F24AA5
:103BE000322100902120FEF775FE00201023EF4ABD
:103BF000322100900846FEF76DFE00201023EC4AAB
:103C0000322100904320FEF765FE00201023E94A90
:103C1000322100905420FEF75DFE00201023E64A7A
:103C2000322100906520FEF755FE00201023E34A64
:103C3000322100907620FEF74DFE00201023E04A4E
:103C4000322100908720FEF745FE00201023DD4A38
:103C5000462100901846FEF73DFE00201023DA4A68
:103C6000462100902120FEF735FE00201023D74A80
:103C7000462100903220FEF72DFE00201023D44A6A
:103C8000462100904320FEF725FE00201023D14A54
:103C9000462100905420FEF71DFE00201023CE4A3E
:103CA000462100906520FEF715FE00201023C14A32
:103CB000462100907620FEF70DFE00201023C64A14
:103CC000462100908720FEF705FE00201023C34AFE
:103CD000462100909820FEF7FDFD00201023C04AE9
:103CE00046210090A920FEF7F5FD00201023BD4AD3
:103CF00046210090BA20FEF7EDFD00201023BA4ABD
:103D000046210090CB20FEF7E5FD00201023B74AA6
:103D10005A2100901846FEF7DDFD00201023B44A1A
:103D20005A2100902120FEF7D5FD00201023B14A32
:103D30005A2100903220FEF7CDFD002010239F4A2B
:103D40005A2100904320FEF7C5FD00201023AA4A07
:103D50005A2100905420FEF7BDFD00201023A74AF1
:103D60005A2100906520FEF7B5FD00201023A44ADB
:103D70005A2100907620FEF7ADFD002010238D4AD9
:103D80005A2100908720FEF7A5FD002010239D4AB0
:103D90005A2100909820FEF79DFD00201023844AB0
:103DA0005A210090A920FEF795FD00201023964A85
:103DB0005A210090BA20FEF78DFD00201023934A6F
:103DC0005A210090CB20FEF785FD00201023904A59
:103DD0006E2100901846FEF77DFD00201023774AE3
:103DE0006E2100902120FEF775FD00201023894AE6
:103DF0006E2100903220FEF76DFD00201023864AD0
:103E00006E2100904320FEF765FD002010237E4ABE
:103E10006E2100905420FEF75DFD002010237B4AA8
:103E20006E2100906520FEF755FD002010237B4A8F
:103E30006E2100907620FEF74DFD00201023784A79
:103E40006E2100908720FEF745FD00201023754A63
:103E50006E2100909820FEF73DFD00201023724A4D
:103E60006E210090A920FEF735FD4FF478406FA138
:103E700010221346CDE9002102906E21BA2006F0EF
:103E80000BF8002010236A4A822100901846FEF7A2
:103E900021FD00201023674A822100902120FEF797
:103EA00019FD00201023644A822100903220FEF781
:103EB00011FD00201023614A822100904320FEF76B
:103EC00009FD002010235E4A822100905420FEF755
:103ED00001FD002010235B4A822100906520FEF73F
:103EE000F9FC00201023584A822100907620FEF72A
:103EF000F1FC4FF4784055A110221346CDE9002182
:103F0000029008228221872005F0C6FF002010239E
:103F10004F4A822100909020FEF7DCFC0020102305
:103F20004C4A82210090A120FEF7D4FC00201023EF
:103F3000494A82210090B220FEF7CCFC00201023D9
:103F4000464A82210090C320FEF7C4FC00201023C3
:103F5000434A82210090D420FEF7BCFC00201023AD
:103F6000404AAA2100901846FEF7B4FC0020102316
:103F7000184AAA2100902120FEF7ACFC4FF47840AB
:103F800039A110221346CDE9002102902822AA214E
:103F9000322005F081FF6BE0FE3002084631020856
:103FA0008E310208FE2A02081E2B02083E2B020850
:103FB000DE2D02085E2B02081E2A02083E2A020895
:103FC0005E2A02087E2B02089E2B0208BE2B0208E6
:103FD000DE2B0208FE2B02081E2C02083E2C0208D3
:103FE0005E2C0208BE2C0208DE2C0208FE2C020801
:103FF0001E2D02083E2D02085E2D02087E2D0208AD
:104000009E2D0208BE2D0208FE2D02081E2E02085B
:104010003E2E02085E2E02087E2E02089E2E020808
:10402000BE2E0208FE2E02081E2F020835250000B3
:104030003E2F02085E2F02087E2F02089E2F0208E4
:10404000BE2F0208DE2F0208FE2F02082C000000FF
:104050007E2A02089E2A02081E3002083E3002080C
:104060005E3002087E300208574B5F55500000005A
:1040700000201023174AAA2100905C20FEF72AFC9A
:1040800000201023144AAA2100906D20FEF722FC84
:1040900000201023114AAA2100907E20FEF71AFC6E
:1040A000002010230E4AAA2100908F20FEF712FC58
:1040B000002010230B4AAA210090A020FEF70AFC42
:1040C00000201023084AAA210090B120FEF702FC2C
:1040D0000EBD00005E2C02089E300208BE300208B1
:1040E000DE3002087E2A02089E2A020841F61F419D
:1040F00041F2873000F0F8FA064800F0CFFCFFF7F5
:1041000071FA05E0034806F0CDF80520FFF79CF9A9
:10411000F8E70000880100203EB504462046FFF77E
:1041200015F90020134908604FF4784012A12022AD
:104130001346CDE90021029040224B21282005F0B2
:10414000ABFE4FF478400EA120221346CDE90021AA
:10415000029050224B21782005F09EFE4FF6FF7012
:10416000044908601D20FDF74FFD4FF4FA60FFF78A
:104170006BF93EBD3000002047414D450000000076
:104180004F56455221000000D0F82013491CC0F8BA
:104190002013D0F82013891E50F82120D0F82013C6
:1041A000491E40F82120D0F82013891E00F5C8725E
:1041B00052F82130D0F82013491E42F821307047C0
:1041C00000B587B000BF00BF4E48806940F01000C6
:1041D0004C4988610846806900F01000009000BFDB
:1041E00000BF00BF00BF00BF0846806940F010005C
:1041F00088610846806900F01000009000BF00BF91
:1042000000BF4FF40050039001200490059003205C
:10421000069003A93C48FDF7F1FA02200390002024
:104220000490012005900320069003A93648FDF76D
:10423000E5FAFEF751FF00BF00224FF4005132486B
:10424000FDF78EFC00BF0A20FFF7FEF800BF012239
:1042500051032D48FDF784FC00BF0A20FFF7F4F856
:10426000022003900020049005900320069003A9EB
:104270002548FDF7C3FA6420FFF7E6F8042201A9F8
:1042800048F2401000F058F800208DF808001FA1F7
:1042900001A8FCF783F988B11DA101A8FCF77EF9FC
:1042A00060B11DA101A8FCF779F938B11CA101A8E2
:1042B000FCF774F910B1012007B000BD01A91AA0E4
:1042C000FBF7D8FF16A101A8FCF768F910B90A207E
:1042D0001849087002208DF80400012201A948F253
:1042E000400000F0D3F90A20FFF7AEF800208DF867
:1042F0000400012201A948F2400000F0C7F90020A3
:10430000DAE70000001002400010014039313100AE
:1043100039313437000000003131353800000000F9
:1043200039323731000000004354502049443A25C7
:10433000730D0A00350000202DE9F04105460F46B7
:104340001646FEF789FF2820FEF750FFFEF7CAFF4A
:104350002812FEF74BFFFEF7C5FFE8B2FEF746FF57
:10436000FEF7C0FFFEF778FF2920FEF73FFFFEF7BC
:10437000B9FF00240BE0711EA14201D0012100E031
:1043800000210846FEF704FF3855601CC4B2B44251
:10439000F1DBFEF787FFBDE8F081000071B583B067
:1043A000002001900026B4480078401CB2490870F3
:1043B000084601780A2091FBF0F200FB121018B1B8
:1043C000AD4800780A287DDA012203A948F24E1090
:1043D000FFF7B2FF9DF80C0000F0800078B19DF867
:1043E0000C0000F00F00A5490978884207DC002086
:1043F0000190012201A948F24E1000F047F99DF802
:104400000C0000F00F0000285CD09DF80C0000F0BC
:104410000F009A490978884254DC9DF80C0000F09E
:104420000F014FF6FF70884084B29548858EE043B7
:1044300080B240F4404092498886084682898F487D
:104440000078401E0C3121F810208D48028C8B48DA
:104450000078401E143121F8102000200190A7E0C0
:104460008748808E9DF80420012191400840002853
:104470003FD084499DF8042031F81200042202A99B
:10448000FFF75AFF8048808845F2105188420BD0D0
:104490007D48808849F60601884205D07A488088A0
:1044A00047F29671884240D1754890F8440000F078
:1044B0000100F8B19DF80A009DF80B1000EB0120F7
:1044C000714900E0B2E00988081A81B26C480C30EA
:1044D0009DF8042020F812109DF808009DF809109E
:1044E00000EB012081B2664820309DF8042020F8BE
:1044F000121058E09DF808009DF8091000EB01200B
:1045000081B25F480C309DF8042020F812109DF80D
:104510000A009DF80B1000EB012081B258482030B2
:104520009DF8042020F812103DE0554890F8440012
:1045300000F00100D0B19DF808009DF8091000EBD3
:10454000012081B24E480C309DF8042020F8121052
:104550009DF80A009DF80B1000EB012081B248483D
:1045600020309DF8042020F812101CE09DF80A006D
:104570009DF80B1000EB012043490988081A81B20D
:104580003F480C309DF8042020F812109DF80800D8
:104590009DF8091000EB012081B2394820309DF8C8
:1045A000042020F812109DF80400401CC0B20190B5
:1045B0009DF80400314909788842FFF651AF012681
:1045C0002F48808930490988884205DC2C48008CB6
:1045D0002D494988884226DD9DF80C0000F00F0027
:1045E00001280ADD2648C089254988810846408C73
:1045F000088400202049087018E020480078401EF8
:104600001F490C3131F810000C3988811B480078A3
:10461000401E203131F8100020390884802003909A
:104620000846858602E00020134908709DF80C00BA
:1046300000F08F00802815D11148808E00F40040D2
:1046400030B10F48808E20F400400D49888609E083
:104650004FF6FF700A49888108840846808E00F46E
:104660006040888604480078F02802DD0A2002496C
:104670000870304604B070BD3600002035000020C0
:1046800038000020CE610208F80400202DE9F04136
:1046900004460E4617464FF00008FEF7DDFD2820C1
:1046A000FEF7A4FDFEF71EFE2012FEF79FFDFEF7AB
:1046B00019FEE0B2FEF79AFDFEF714FE00250BE0AE
:1046C000705DFEF793FDFEF70DFE8046B8F1000F1A
:1046D00000D003E0681CC5B2BD42F1DB00BFFEF7AD
:1046E000E1FD4046BDE8F08138B504460D4600BF07
:1046F00000BF1248C06940F002001049C861084676
:10470000C06900F00200009000BF00BF00BF0C486D
:104710000C4908600846456000218160C460FDF7CF
:1047200079FE032201211D20FDF7A0FA1D20FDF7CF
:104730008DFA0448FDF7A2FE38BD000000100240CB
:1047400000040040B004002010B500BF00224FF468
:1047500000611148FDF704FA00BF00F01FF800BF28
:10476000012211030C48FDF7FBF900BF00F016F819
:1047700000BF00224FF480510748FDF7F1F900BF58
:1047800000F00CF800BF0122D1020348FDF7E8F960
:1047900000BF00F003F810BD0010014010B502206A
:1047A000FEF75CFE10BD000000B585B000BF00BF85
:1047B0001A48806940F010001849886108468069ED
:1047C00000F01000009000BF00BF00BF00BF00BF9E
:1047D0000846806940F0080088610846806900F05A
:1047E0000800009000BF00BF00BF881401900120A6
:1047F000029003900320049001A90948FCF7FEFFF2
:104800004FF4006001901120029001A90448FCF7C8
:10481000F5FF00F0B7F805B000BD00000010024041
:104820000010014010B500BF0122D1020C48FDF775
:1048300097F900BFFFF7B2FF00BF0122110308483C
:10484000FDF78EF900BFFFF7A9FF00BF00224FF46C
:1048500080510348FDF784F900BFFFF79FFF10BDAB
:104860000010014070B50546002400261EE06006D9
:10487000040E00BF012211031148FDF771F900BFBA
:10488000FFF78CFF4FF400610D48FDF757F908B1B1
:10489000601CC4B200BF00224FF480510848FDF7ED
:1048A0005FF900BFFFF77AFF701CC6B2082EDEDB8F
:1048B00015B9FFF7B7FF01E0FFF746FF204670BDCF
:1048C0000010014070B50446002526E000BFE00955
:1048D00028B10122D1021648FDF742F905E0002275
:1048E0004FF400611248FDF73BF900BFFFF756FF98
:1048F00000BF012211030E48FDF732F900BFFFF798
:104900004DFF00BF00224FF480510948FDF728F900
:1049100000BF6006040E681CC5B2082DD6DB00BFC0
:104920000122D1020248FDF71BF900BF70BD000053
:104930000010014010B500BF0122D1021048FDF760
:104940000FF900BF00BF012211030D48FDF708F960
:1049500000BFFFF723FF00BF00224FF400610848AB
:10496000FDF7FEF800BFFFF719FF00BF00224FF46C
:1049700080510348FDF7F4F800BFFFF70FFF10BDAB
:104980000010014010B500BF00224FF400610C4838
:10499000FDF7E6F800BFFFF701FF00BF012211039A
:1049A0000748FDF7DDF800BFFFF7F8FE00BF012262
:1049B000D1020348FDF7D4F800BFFFF7EFFE10BDAA
:1049C0000010014070B50024002500BF0122D10273
:1049D0001548FDF7C5F800BFFFF7E0FE00BF012254
:1049E00011031148FDF7BCF800BFFFF7D7FE07E041
:1049F000601CC4B2FA2C03DDFFF7C4FF012506E0FA
:104A00004FF400610848FDF799F80028F0D100BF85
:104A100000BF00224FF480510348FDF7A1F800BF0A
:104A2000FFF7BCFE284670BD0010014070B504467B
:104A30000D4600262CE0FBF7E1FB182190FBF1F27C
:104A400001FB120000EB800040002060FBF7D6FB6A
:104A50000F2190FBF1F201FB120000EB80004000FF
:104A60006060012600200EE055F820202168914268
:104A700008D105F5C87151F8201062688A4201D149
:104A8000002604E0401CD5F820138142ECDC00BF76
:104A9000002ED0D02046FEF771FD70BD0321C0F876
:104AA00020130421C0F8241300210BE001EB810244
:104AB0002823A3EB420240F8212000F5C87242F8F7
:104AC0002130491CD0F820238A42EFDC70470000D7
:104AD00078B5044600261B480588408845430021D8
:104AE000084604F0C5FE00BF1648008900904FF04C
:104AF00080701549086140000861BDF80000134945
:104B000008604FF4000010490861802008618000AF
:104B1000086100BF00BF401008614004086100BF89
:104B200008E00A4804604FF400000749086180204B
:104B30000861761CAE42F4D34FF40070024908615C
:104B400078BD0000F8040020001001400C0C01406A
:104B500010B5044658488471002C58D1F0205649AD
:104B600008804FF4A07048800846808845F21051B4
:104B7000884210D14FF430504F4908814FF42850EB
:104B800048814FF42C5088814FF4F07008804FF426
:104B9000487048801AE04848808841F6631188428E
:104BA0000DD12C20444908812B2048812A2088815E
:104BB0004FF4F07008804FF44870488006E02C20D5
:104BC0003D4908812A2048812B2088813A488088E5
:104BD00045F21031884205D03748808847F29671F7
:104BE000884206D14FF4A070334908804FF4F0702A
:104BF00048803148808849F60601884258D14FF4F0
:104C0000F0702D4908804FF44870488050E04FF410
:104C1000A07029490880F02048800846808845F225
:104C20001051884210D14FF43050234908814FF47D
:104C3000285048814FF42C5088814FF448700880E8
:104C40004FF4F070488020E01B48808841F66311E3
:104C5000884205D01848808849F6060188420DD15F
:104C60002C20154908812A2048812B2088814FF467
:104C7000487008804FF4F070488006E02C200E4900
:104C800008812A2048812B2088810B48808845F2A2
:104C90001031884205D00848808847F296718842D2
:104CA00006D14FF4F070044908804FF4A07048809A
:104CB000002004F049FB10BDF80400202DE9F04766
:104CC00006460F4690469A46002445460320A0EB30
:104CD000480944E07A1B91B2321990B2524600F072
:104CE00099F83A1B91B2721990B2524600F092F8BC
:104CF0003A1991B2721990B2524600F08BF87A19B3
:104D000091B2321990B2524600F084F87A1991B2F9
:104D1000321B90B2524600F07DF83A1991B2721BE4
:104D200090B2524600F076F87A1B91B2321B90B2E4
:104D3000524600F06FF83A1B91B2721B90B2524685
:104D400000F068F8641CB9F1000F03DAA000801DC0
:104D5000814404E0601B80000A3081446D1EAC4237
:104D6000B8DDBDE8F0872DE9FF4F84B081468A4663
:104D70000020029083460698A0EB09050798A0EB57
:104D80000A06CDF80490CDF800A0002D01DD012722
:104D900005E00DB9002702E04FF0FF376D42002E0D
:104DA00002DD4FF0010806E016B94FF0000802E0FE
:104DB0004FF0FF387642B54201DD2C4600E0344624
:104DC000002003901EE0009A91B2019A90B2119ACD
:104DD00000F020F8029828440290B3440298A042C0
:104DE00005DD0298001B0290019838440190A3450C
:104DF00004DDABEB040B0098404400900398401C8A
:104E000080B20390611C03988842DCDD08B0BDE8E5
:104E1000F08F000078B505460E4614463146284608
:104E200004F026FD00BF1248008900904FF080700A
:104E30001049086140000861BDF800000E49086093
:104E40004FF400000B490861802008618000086170
:104E500000BF00BF401008614004086106480460BC
:104E60004FF400000861802008618000086178BD6F
:104E7000F8040020001001400C0C01402DE9F8411D
:104E800005460E4617469846079C33463A46314635
:104E900028460094FFF767FF43462A4631462846D6
:104EA0000094FFF760FF43463A4641462846009487
:104EB000FFF759FF43463A46314638460094FFF71C
:104EC00052FFBDE8F881000008B5CF2000904FF0F8
:104ED0008070FE49086140000861BDF80000FC498F
:104EE00008604FF40000F9490861802008618000E3
:104EF000086100BF002005F089F8C12005F086F8A0
:104F0000302005F083F8ED2000904FF08070EF49DD
:104F1000086140000861BDF80000ED4908604FF4E9
:104F20000000EA490861802008618000086100BF34
:104F3000642005F06BF8032005F068F8122005F0F6
:104F400065F8812005F062F8E82000904FF080704D
:104F5000DE49086140000861BDF80000DC490860D6
:104F60004FF40000D9490861802008618000086181
:104F700000BF852005F04AF8102005F047F87A2098
:104F800005F044F8CB2000904FF08070CF490861C5
:104F900040000861BDF80000CD4908604FF40000F2
:104FA000CA490861802008618000086100BF39207B
:104FB00005F02CF82C2005F029F8002005F026F843
:104FC000342005F023F8022005F020F8F7200090A7
:104FD0004FF08070BD49086140000861BDF80000D5
:104FE000BB4908604FF40000B8490861802008619F
:104FF0008000086100BF202005F008F8EA2000903A
:105000004FF08070B149086140000861BDF80000B0
:10501000AF4908604FF40000AC4908618020086186
:105020008000086100BF002004F0F0FF002004F0C1
:10503000EDFFC02000904FF08070A449086140004F
:105040000861BDF80000A24908604FF400009F49C4
:105050000861802008618000086100BF1B2004F007
:10506000D5FFC12000904FF0807098490861400042
:105070000861BDF80000964908604FF400009349AC
:105080000861802008618000086100BF012004F0F1
:10509000BDFFC52000904FF080708C490861400032
:1050A0000861BDF800008A4908604FF40000874994
:1050B0000861802008618000086100BF302004F092
:1050C000A5FF302004F0A2FFC72000904FF08070B1
:1050D0007E49086140000861BDF800007C49086015
:1050E0004FF4000079490861802008618000086160
:1050F00000BFB72004F08AFF362000904FF0807088
:105100007249086140000861BDF8000070490860FC
:105110004FF400006D49086180200861800008613B
:1051200000BF482004F072FF3A2000904FF08070DA
:105130006649086140000861BDF8000064490860E4
:105140004FF4000061490861802008618000086117
:1051500000BF552004F05AFFB12000904FF080703E
:105160005A49086140000861BDF8000058490860CC
:105170004FF40000554908618020086180000861F3
:1051800000BF002004F042FF1A2004F03FFFB620C9
:1051900000904FF080704D49086140000861BDF8F3
:1051A00000004B4908604FF4000048490861802026
:1051B00008618000086100BF0A2004F027FFA220D8
:1051C00004F024FFF22000904FF080703F49086106
:1051D00040000861BDF800003D4908604FF4000040
:1051E0003A490861802008618000086100BF002002
:1051F00004F00CFF262000904FF0807033490861C6
:1052000040000861BDF80000314908604FF400001B
:105210002E490861802008618000086100BF0120DC
:1052200004F0F4FEE02000904FF080702749086100
:1052300040000861BDF80000254908604FF40000F7
:1052400022490861802008618000086100BF0F20AA
:1052500004F0DCFE2A2004F0D9FE282004F0D6FE5B
:10526000082004F0D3FE0E2004F0D0FE082004F045
:10527000CDFE542004F0CAFEA92004F0C7FE43204E
:1052800004F0C4FE0A2004F0C1FE0F2004F0BEFEAC
:10529000002004F0BBFE002004F0B8FE002004F063
:1052A000B5FE002004F0B2FEE12000904FF08070C7
:1052B0000649086140000861BDF800000449086023
:1052C0004FF4000001490861802003E00010014014
:1052D0000C0C014008618000086100BF002004F050
:1052E00095FE152004F092FE172004F08FFE072093
:1052F00004F08CFE112004F089FE062004F086FEE6
:105300002B2004F083FE562004F080FE3C2004F0A5
:105310007DFE052004F07AFE102004F077FE0F20B9
:1053200004F074FE3F2004F071FE3F2004F06EFE96
:105330000F2004F06BFE2B2000904FF08070364958
:10534000086140000861BDF80000344908604FF46E
:10535000000031490861802008618000086100BFB9
:10536000002004F053FE002004F050FE012004F061
:105370004DFE3F2004F04AFE2A2000904FF080703E
:105380002549086140000861BDF800002349086014
:105390004FF4000020490861802008618000086106
:1053A00000BF002004F032FE002004F02FFE002099
:1053B00004F02CFEEF2004F029FE112000904FF0A5
:1053C00080701549086140000861BDF8000013496C
:1053D00008604FF4000010490861802008618000D7
:1053E000086100BF7820FEF72FF8292000904FF0C9
:1053F00080700949086140000861BDF80000074954
:1054000008604FF4000004490861802008618000B2
:10541000086100BF08BD0000001001400C0C0140F5
:1054200008B5FF2000904FF08070FE4908614000F1
:105430000861BDF80000FC4908604FF40000F9491C
:105440000861802008618000086100BFFF2004F02F
:10545000DDFD982004F0DAFD062004F0D7FDBC2025
:1054600000904FF08070EF49086140000861BDF87E
:105470000000ED4908604FF40000EA49086180200F
:1054800008618000086100BF012004F0BFFD0F200B
:1054900004F0BCFD612004F0B9FDFF2004F0B6FD6E
:1054A000012004F0B3FD012004F0B0FD0B2004F056
:1054B000ADFD102004F0AAFD372004F0A7FD632005
:1054C00004F0A4FDFF2004F0A1FDFF2004F09EFDE8
:1054D000012004F09BFD012004F098FD002004F061
:1054E00095FD002004F092FDFF2004F08FFD522076
:1054F00004F08CFD012004F089FD002004F086FDFD
:10550000402004F083FDBD2000904FF08070C5491D
:10551000086140000861BDF80000C34908604FF40D
:105520000000C0490861802008618000086100BF58
:10553000012004F06BFD232004F068FD452004F0F9
:1055400065FD672004F062FD012004F05FFD23206B
:1055500004F05CFD452004F059FD672004F056FD81
:10556000BE2000904FF08070AE4908614000086195
:10557000BDF80000AC4908604FF40000A94908617B
:10558000802008618000086100BF002004F03EFD1B
:10559000012004F03BFDAB2004F038FD602004F056
:1055A00035FD222004F032FD222004F02FFD2220C0
:1055B00004F02CFD222004F029FD222004F026FD19
:1055C000C72000904FF08070964908614000086144
:1055D000BDF80000944908604FF40000914908614B
:1055E000802008618000086100BF362004F00EFDB5
:1055F000ED2000904FF080708A49086140000861FA
:10560000BDF80000884908604FF400008549086132
:10561000802008618000086100BF7F2004F0F6FC54
:105620000F2004F0F3FCC02000904FF080707D4903
:10563000086140000861BDF800007B4908604FF434
:10564000000078490861802008618000086100BF7F
:105650000F2004F0DBFC0B2004F0D8FC0A2004F03F
:10566000D5FCFC2000904FF080706E49086140002E
:105670000861BDF800006C4908604FF400006949FA
:105680000861802008618000086100BF082004F0E4
:10569000BDFCDF2000904FF080706249086140003F
:1056A0000861BDF80000604908604FF400005D49E2
:1056B0000861802008618000086100BF002004F0BC
:1056C000A5FC002004F0A2FC002004F09FFC0020B8
:1056D00004F09CFC002004F099FC202004F096FCCF
:1056E000F32000904FF080704E490861400008613F
:1056F000BDF800004C4908604FF4000049490861BA
:10570000802008618000086100BF742004F07EFCE6
:10571000B42000904FF08070424908614000086159
:10572000BDF80000404908604FF400003D490861A1
:10573000802008618000086100BF002004F066FC42
:10574000002004F063FC002004F060FCF7200090CF
:105750004FF080703349086140000861BDF80000D7
:10576000314908604FF400002E490861802008612B
:105770008000086100BF822004F048FCB120009046
:105780004FF080702749086140000861BDF80000B3
:10579000254908604FF40000224908618020086113
:1057A0008000086100BF002004F030FC132004F0EA
:1057B0002DFC132004F02AFCF22000904FF08070A2
:1057C0001849086140000861BDF8000016490860EA
:1057D0004FF40000134908618020086180000861CF
:1057E00000BF802004F012FC042004F00FFC4020D5
:1057F00004F00CFC282004F009FCC12000904FF0BC
:1058000080700849086140000861BDF80000064941
:1058100008604FF40000034908618020086180009F
:10582000086103E0001001400C0C014000BF17208C
:1058300004F0ECFB882004F0E9FB882004F0E6FB90
:10584000202004F0E3FBE02000904FF080709F499F
:10585000086140000861BDF800009D4908604FF4F0
:1058600000009A490861802008618000086100BF3B
:10587000002004F0CBFB0A2004F0C8FB122004F047
:10588000C5FB102004F0C2FB0E2004F0BFFB20205B
:1058900004F0BCFBCC2004F0B9FB072004F0B6FBFD
:1058A000062004F0B3FB0B2004F0B0FB0E2004F044
:1058B000ADFB0F2004F0AAFB0D2004F0A7FB152080
:1058C00004F0A4FB102004F0A1FB002004F09EFBD8
:1058D000E12000904FF080707C4908614000086131
:1058E000BDF800007A4908604FF40000774908616C
:1058F000802008618000086100BF002004F086FB62
:105900000B2004F083FB132004F080FB0D2004F037
:105910007DFB0E2004F07AFB1B2004F077FB712046
:1059200004F074FB062004F071FB062004F06EFB0B
:105930000A2004F06BFB0F2004F068FB0E2004F03B
:1059400065FB0F2004F062FB152004F05FFB0C20C8
:1059500004F05CFB002004F059FB2A2000904FF07B
:1059600080705A49086140000861BDF8000058493C
:1059700008604FF4000055490861802008618000EC
:10598000086100BF002004F041FB002004F03EFB52
:10599000012004F03BFBDF2004F038FB2B200090BB
:1059A0004FF080704949086140000861BDF800006F
:1059B000474908604FF400004449086180200861AD
:1059C0008000086100BF002004F020FB002004F0EC
:1059D0001DFB032004F01AFB1F2004F017FB3A20E4
:1059E00000904FF080703949086140000861BDF8AF
:1059F0000000374908604FF40000344908618020F6
:105A000008618000086100BF552004F0FFFA3620CD
:105A100000904FF080702D49086140000861BDF88A
:105A200000002B4908604FF40000284908618020DD
:105A300008618000086100BF002004F0E7FA11202F
:105A400000904FF080702149086140000861BDF866
:105A500000001F4908604FF400001C4908618020C5
:105A600008618000086100BF7820FDF7EDFC292067
:105A700000904FF080701549086140000861BDF842
:105A80000000134908604FF40000104908618020AD
:105A900008618000086100BF1420FDF7D5FC2C20B0
:105AA00000904FF080700949086140000861BDF81E
:105AB0000000074908604FF4000004490861802095
:105AC00008618000086100BF08BD000000100140AF
:105AD0000C0C014008B5ED2000904FF08070FE499D
